{
  "contractName": "RES",
  "abi": [
    {
      "constant": true,
      "inputs": [
        {
          "name": "",
          "type": "uint256"
        }
      ],
      "name": "availabilitiesIds",
      "outputs": [
        {
          "name": "",
          "type": "uint256"
        }
      ],
      "payable": false,
      "stateMutability": "view",
      "type": "function"
    },
    {
      "constant": true,
      "inputs": [
        {
          "name": "",
          "type": "uint256"
        }
      ],
      "name": "reservationsIds",
      "outputs": [
        {
          "name": "",
          "type": "uint256"
        }
      ],
      "payable": false,
      "stateMutability": "view",
      "type": "function"
    },
    {
      "constant": false,
      "inputs": [
        {
          "name": "_commission",
          "type": "uint256"
        },
        {
          "name": "_endDateTs",
          "type": "uint256"
        },
        {
          "name": "_freeCancelDateTs",
          "type": "uint256"
        },
        {
          "name": "_messageHash",
          "type": "bytes32"
        },
        {
          "name": "_metaDataLink",
          "type": "string"
        },
        {
          "name": "_minDeposit",
          "type": "uint256"
        },
        {
          "name": "_quantity",
          "type": "uint256"
        },
        {
          "name": "_resourceId",
          "type": "uint256"
        },
        {
          "name": "_signature",
          "type": "bytes"
        },
        {
          "name": "_startDateTs",
          "type": "uint256"
        },
        {
          "name": "_type",
          "type": "uint256"
        }
      ],
      "name": "publishAvailability",
      "outputs": [],
      "payable": false,
      "stateMutability": "nonpayable",
      "type": "function"
    },
    {
      "constant": false,
      "inputs": [],
      "name": "size",
      "outputs": [
        {
          "name": "",
          "type": "uint256"
        }
      ],
      "payable": false,
      "stateMutability": "nonpayable",
      "type": "function"
    },
    {
      "constant": true,
      "inputs": [],
      "name": "ListAvailabilities",
      "outputs": [
        {
          "name": "",
          "type": "uint256[]"
        }
      ],
      "payable": false,
      "stateMutability": "view",
      "type": "function"
    },
    {
      "constant": true,
      "inputs": [
        {
          "name": "_availabilityId",
          "type": "uint256"
        }
      ],
      "name": "ReadAvailability",
      "outputs": [
        {
          "name": "",
          "type": "uint256"
        },
        {
          "name": "",
          "type": "uint256"
        },
        {
          "name": "",
          "type": "uint256"
        },
        {
          "name": "",
          "type": "bytes32"
        },
        {
          "name": "",
          "type": "string"
        },
        {
          "name": "",
          "type": "uint256"
        },
        {
          "name": "",
          "type": "uint256"
        },
        {
          "name": "",
          "type": "uint256"
        },
        {
          "name": "",
          "type": "bytes"
        },
        {
          "name": "",
          "type": "uint256"
        },
        {
          "name": "",
          "type": "uint256"
        }
      ],
      "payable": false,
      "stateMutability": "view",
      "type": "function"
    },
    {
      "constant": true,
      "inputs": [
        {
          "name": "_availabilityId",
          "type": "uint256"
        }
      ],
      "name": "getAvailabilityCaution",
      "outputs": [
        {
          "name": "",
          "type": "uint256"
        }
      ],
      "payable": false,
      "stateMutability": "view",
      "type": "function"
    },
    {
      "constant": true,
      "inputs": [
        {
          "name": "_reservationId",
          "type": "uint256"
        }
      ],
      "name": "ReadReservation",
      "outputs": [
        {
          "name": "",
          "type": "uint8"
        },
        {
          "name": "",
          "type": "address"
        },
        {
          "name": "",
          "type": "uint256"
        },
        {
          "name": "",
          "type": "bytes32"
        }
      ],
      "payable": false,
      "stateMutability": "view",
      "type": "function"
    },
    {
      "constant": false,
      "inputs": [
        {
          "name": "_availabilityId",
          "type": "uint256"
        },
        {
          "name": "_requester",
          "type": "address"
        }
      ],
      "name": "requestReservation",
      "outputs": [],
      "payable": false,
      "stateMutability": "nonpayable",
      "type": "function"
    },
    {
      "constant": true,
      "inputs": [],
      "name": "ListReservations",
      "outputs": [
        {
          "name": "",
          "type": "uint256[]"
        }
      ],
      "payable": false,
      "stateMutability": "view",
      "type": "function"
    },
    {
      "constant": false,
      "inputs": [
        {
          "name": "validate",
          "type": "bool"
        },
        {
          "name": "_owner",
          "type": "address"
        },
        {
          "name": "_reservationId",
          "type": "uint256"
        }
      ],
      "name": "confirmReservation",
      "outputs": [
        {
          "name": "success",
          "type": "bool"
        }
      ],
      "payable": false,
      "stateMutability": "nonpayable",
      "type": "function"
    },
    {
      "constant": false,
      "inputs": [
        {
          "name": "_from",
          "type": "address"
        },
        {
          "name": "_to",
          "type": "address"
        },
        {
          "name": "_value",
          "type": "uint256"
        }
      ],
      "name": "approvalTransfer",
      "outputs": [
        {
          "name": "success",
          "type": "bool"
        }
      ],
      "payable": false,
      "stateMutability": "nonpayable",
      "type": "function"
    },
    {
      "constant": false,
      "inputs": [
        {
          "name": "_to",
          "type": "address"
        },
        {
          "name": "_value",
          "type": "uint256"
        }
      ],
      "name": "basicTransfer",
      "outputs": [
        {
          "name": "success",
          "type": "bool"
        }
      ],
      "payable": false,
      "stateMutability": "nonpayable",
      "type": "function"
    },
    {
      "constant": true,
      "inputs": [],
      "name": "GetBTUTotalSupply",
      "outputs": [
        {
          "name": "",
          "type": "uint256"
        }
      ],
      "payable": false,
      "stateMutability": "view",
      "type": "function"
    },
    {
      "constant": true,
      "inputs": [],
      "name": "GetBTUAddress",
      "outputs": [
        {
          "name": "",
          "type": "address"
        }
      ],
      "payable": false,
      "stateMutability": "view",
      "type": "function"
    },
    {
      "constant": true,
      "inputs": [
        {
          "name": "hash",
          "type": "bytes32"
        },
        {
          "name": "sig",
          "type": "bytes"
        }
      ],
      "name": "recover",
      "outputs": [
        {
          "name": "",
          "type": "address"
        }
      ],
      "payable": false,
      "stateMutability": "pure",
      "type": "function"
    }
  ],
  "bytecode": "0x606060405273345ca3e014aaf5dca488057592ee47305d9b3e106000806101000a81548173ffffffffffffffffffffffffffffffffffffffff021916908373ffffffffffffffffffffffffffffffffffffffff16021790555060006001556000600255341561006d57600080fd5b61197f8061007c6000396000f3006060604052600436106100e6576000357c0100000000000000000000000000000000000000000000000000000000900463ffffffff1680631780d056146100eb57806319045a25146101215780633c0862321461015757806340e1edf1146101795780635a992b91146101b95780636c37f06b146101e25780637a5aec44146102185780637e46529d1461024e57806385db8fb414610270578063949d225d146102995780639f112709146102c2578063ac681808146102f8578063bf345dfb14610321578063bf53a89b14610357578063c446b5ef1461038d578063d04b9533146103c6575b600080fd5b34156100f657600080fd5b61010b60046101069036906111bb565b6103ef565b60405161011891906115e9565b60405180910390f35b341561012c57600080fd5b610141600461013c903690611213565b61053b565b60405161014e919061154c565b60405180910390f35b341561016257600080fd5b61017760046101729036906112ab565b610609565b005b341561018457600080fd5b6101996004610194903690611279565b61074c565b6040516101b09b9a999897969594939291906116a9565b60405180910390f35b34156101c457600080fd5b6101cc610914565b6040516101d9919061168e565b60405180910390f35b34156101ed57600080fd5b61020260046101fd90369061111e565b6109c8565b60405161020f91906115e9565b60405180910390f35b341561022357600080fd5b6102386004610233903690611176565b610a8f565b60405161024591906115e9565b60405180910390f35b341561025957600080fd5b61026e60046102699036906112f0565b610b53565b005b341561027b57600080fd5b610283610ca3565b604051610290919061154c565b60405180910390f35b34156102a457600080fd5b6102ac610ccc565b6040516102b9919061168e565b60405180910390f35b34156102cd57600080fd5b6102e260046102dd903690611279565b610cd6565b6040516102ef919061168e565b60405180910390f35b341561030357600080fd5b61030b610cfa565b60405161031891906115c7565b60405180910390f35b341561032c57600080fd5b610341600461033c903690611279565b610d58565b60405161034e919061168e565b60405180910390f35b341561036257600080fd5b6103776004610372903690611279565b610d83565b604051610384919061168e565b60405180910390f35b341561039857600080fd5b6103ad60046103a8903690611279565b610da7565b6040516103bd9493929190611649565b60405180910390f35b34156103d157600080fd5b6103d9610e15565b6040516103e691906115c7565b60405180910390f35b6000806000600560008581526020019081526020016000206001015491506005600085815260200190815260200160002060000160009054906101000a900473ffffffffffffffffffffffffffffffffffffffff16905085151561051e5761051b600360008481526020019081526020016000206009015460036000858152602001908152602001600020600a018054600181600116156101000203166002900480601f0160208091040260200160405190810160405280929190818152602001828054600181600116156101000203166002900480156105115780601f106104e657610100808354040283529160200191610511565b820191906000526020600020905b8154815290600101906020018083116104f457829003601f168201915b505050505061053b565b90505b6105308161052b84610d58565b610a8f565b925050509392505050565b600080600080604185511415156105555760009350610600565b6020850151925060408501519150606085015160001a9050601b8160ff16101561058057601b810190505b601b8160ff16141580156105985750601c8160ff1614155b156105a65760009350610600565b600186828585604051600081526020016040526000604051602001526040516105d29493929190611604565b602060405160208103908084039060008661646e5a03f115156105f457600080fd5b50506020604051035193505b50505092915050565b61061c333061061785610d58565b6109c8565b506080604051908101604052803373ffffffffffffffffffffffffffffffffffffffff1681526020018381526020016000600381111561065857fe5b815260200160006001026000191681525060056000600254815260200190815260200160002060008201518160000160006101000a81548173ffffffffffffffffffffffffffffffffffffffff021916908373ffffffffffffffffffffffffffffffffffffffff1602179055506020820151816001015560408201518160020160006101000a81548160ff021916908360038111156106f357fe5b0217905550606082015181600301906000191690559050506006805480600101828161071f9190610e73565b91600052602060002090016000600254909190915055506002600081548092919060010191905055505050565b60008060008061075a610e9f565b6000806000610767610eb3565b6000806000600360008e8152602001908152602001600020905080600301548160060154826004015483600901548460080185600201548660070154876000015488600a0189600501548a60010154868054600181600116156101000203166002900480601f01602080910402602001604051908101604052809291908181526020018280546001816001161561010002031660029004801561084b5780601f106108205761010080835404028352916020019161084b565b820191906000526020600020905b81548152906001019060200180831161082e57829003601f168201915b50505050509650828054600181600116156101000203166002900480601f0160208091040260200160405190810160405280929190818152602001828054600181600116156101000203166002900480156108e75780601f106108bc576101008083540402835291602001916108e7565b820191906000526020600020905b8154815290600101906020018083116108ca57829003601f168201915b505050505092509b509b509b509b509b509b509b509b509b509b509b505091939597999b90929496989a50565b6000806000809054906101000a900473ffffffffffffffffffffffffffffffffffffffff1690508073ffffffffffffffffffffffffffffffffffffffff166318160ddd6000604051602001526040518163ffffffff167c0100000000000000000000000000000000000000000000000000000000028152600401602060405180830381600087803b15156109a757600080fd5b6102c65a03f115156109b857600080fd5b5050506040518051905091505090565b6000806000809054906101000a900473ffffffffffffffffffffffffffffffffffffffff1690508073ffffffffffffffffffffffffffffffffffffffff166323b872dd8686866000604051602001526040518463ffffffff167c0100000000000000000000000000000000000000000000000000000000028152600401610a5193929190611567565b602060405180830381600087803b1515610a6a57600080fd5b6102c65a03f11515610a7b57600080fd5b505050604051805190509150509392505050565b6000806000809054906101000a900473ffffffffffffffffffffffffffffffffffffffff1690508073ffffffffffffffffffffffffffffffffffffffff1663a9059cbb85856000604051602001526040518363ffffffff167c0100000000000000000000000000000000000000000000000000000000028152600401610b1692919061159e565b602060405180830381600087803b1515610b2f57600080fd5b6102c65a03f11515610b4057600080fd5b5050506040518051905091505092915050565b610160604051908101604052808581526020018281526020018781526020018c81526020018a81526020018381526020018b81526020018681526020018881526020018960001916815260200184815250600360006001548152602001908152602001600020600082015181600001556020820151816001015560408201518160020155606082015181600301556080820151816004015560a0820151816005015560c0820151816006015560e08201518160070155610100820151816008019080519060200190610c26929190610ec7565b50610120820151816009019060001916905561014082015181600a019080519060200190610c55929190610f47565b5090505060048054806001018281610c6d9190610e73565b91600052602060002090016000600154909190915055506001600081548092919060010191905055505050505050505050505050565b60008060009054906101000a900473ffffffffffffffffffffffffffffffffffffffff16905090565b6000600154905090565b600481815481101515610ce557fe5b90600052602060002090016000915090505481565b610d02610fc7565b6006805480602002602001604051908101604052809291908181526020018280548015610d4e57602002820191906000526020600020905b815481526020019060010190808311610d3a575b5050505050905090565b6000806003600084815260200190815260200160002090508060030154816002015403915050919050565b600681815481101515610d9257fe5b90600052602060002090016000915090505481565b60008060008060006005600087815260200190815260200160002090508060020160009054906101000a900460ff168160000160009054906101000a900473ffffffffffffffffffffffffffffffffffffffff16826001015483600301549450945094509450509193509193565b610e1d610fc7565b6004805480602002602001604051908101604052809291908181526020018280548015610e6957602002820191906000526020600020905b815481526020019060010190808311610e55575b5050505050905090565b815481835581811511610e9a57818360005260206000209182019101610e999190610fdb565b5b505050565b602060405190810160405280600081525090565b602060405190810160405280600081525090565b828054600181600116156101000203166002900490600052602060002090601f016020900481019282601f10610f0857805160ff1916838001178555610f36565b82800160010185558215610f36579182015b82811115610f35578251825591602001919060010190610f1a565b5b509050610f439190610fdb565b5090565b828054600181600116156101000203166002900490600052602060002090601f016020900481019282601f10610f8857805160ff1916838001178555610fb6565b82800160010185558215610fb6579182015b82811115610fb5578251825591602001919060010190610f9a565b5b509050610fc39190610fdb565b5090565b602060405190810160405280600081525090565b610ffd91905b80821115610ff9576000816000905550600101610fe1565b5090565b90565b600061100c82356118a0565b905092915050565b600061102082356118c0565b905092915050565b600061103482356118cc565b905092915050565b600082601f8301126000811461105157611056565b600080fd5b50813561106a61106582611798565b611762565b915080825260208301602083018583830111600181146110895761108e565b600080fd5b5061109a8382846118f2565b50505092915050565b600082601f830112600081146110b8576110bd565b600080fd5b5081356110d16110cc826117cd565b611762565b915080825260208301602083018583830111600181146110f0576110f5565b600080fd5b506111018382846118f2565b50505092915050565b600061111682356118d6565b905092915050565b6000806000606084860312600181146111365761113b565b600080fd5b50600061114a86828701611000565b935050602061115b86828701611000565b925050604061116c8682870161110a565b9150509250925092565b6000806040838503126001811461118c57611191565b600080fd5b5060006111a085828601611000565b92505060206111b18582860161110a565b9150509250929050565b6000806000606084860312600181146111d3576111d8565b600080fd5b5060006111e786828701611014565b93505060206111f886828701611000565b92505060406112098682870161110a565b9150509250925092565b600080604083850312600181146112295761122e565b600080fd5b50600061123d85828601611028565b925050602083013567ffffffffffffffff81116001811461125d57611262565b600080fd5b5061126f8582860161103c565b9150509250929050565b60006020828403126001811461128e57611293565b600080fd5b5060006112a28482850161110a565b91505092915050565b600080604083850312600181146112c1576112c6565b600080fd5b5060006112d58582860161110a565b92505060206112e685828601611000565b9150509250929050565b60008060008060008060008060008060006101608c8e0312600181146113155761131a565b600080fd5b5060006113298e828f0161110a565b9b5050602061133a8e828f0161110a565b9a5050604061134b8e828f0161110a565b995050606061135c8e828f01611028565b98505060808c013567ffffffffffffffff81116001811461137c57611381565b600080fd5b5061138e8e828f016110a3565b97505060a061139f8e828f0161110a565b96505060c06113b08e828f0161110a565b95505060e06113c18e828f0161110a565b9450506101008c013567ffffffffffffffff8111600181146113e2576113e7565b600080fd5b506113f48e828f0161103c565b9350506101206114068e828f0161110a565b9250506101406114188e828f0161110a565b9150509295989b509295989b9093969950565b6114348161183d565b82525050565b60006114458261180f565b80845260208401935061145783611802565b60005b828110156114895761146d86835161152e565b61147682611830565b915060208601955060018101905061145a565b50849250505092915050565b61149e8161185d565b82525050565b6114ad81611869565b82525050565b60006114be8261181a565b8084526114d2816020860160208601611901565b6114db81611934565b602085010191505092915050565b6114f2816118e0565b82525050565b600061150382611825565b808452611517816020860160208601611901565b61152081611934565b602085010191505092915050565b61153781611889565b82525050565b61154681611893565b82525050565b6000602082019050611561600083018461142b565b92915050565b600060608201905061157c600083018661142b565b611589602083018561142b565b611596604083018461152e565b949350505050565b60006040820190506115b3600083018561142b565b6115c0602083018461152e565b9392505050565b600060208201905081810360008301526115e1818461143a565b905092915050565b60006020820190506115fe6000830184611495565b92915050565b600060808201905061161960008301876114a4565b611626602083018661153d565b61163360408301856114a4565b61164060608301846114a4565b95945050505050565b600060808201905061165e60008301876114e9565b61166b602083018661142b565b611678604083018561152e565b61168560608301846114a4565b95945050505050565b60006020820190506116a3600083018461152e565b92915050565b6000610160820190506116bf600083018e61152e565b6116cc602083018d61152e565b6116d9604083018c61152e565b6116e6606083018b6114a4565b81810360808301526116f8818a6114f8565b905061170760a083018961152e565b61171460c083018861152e565b61172160e083018761152e565b81810361010083015261173481866114b3565b905061174461012083018561152e565b61175261014083018461152e565b9c9b505050505050505050505050565b6000604051905081810181811067ffffffffffffffff821117600181146117885761178d565b600080fd5b508060405250919050565b600067ffffffffffffffff8211600181146117b2576117b7565b600080fd5b50601f19601f8301169050602081019050919050565b600067ffffffffffffffff8211600181146117e7576117ec565b600080fd5b50601f19601f8301169050602081019050919050565b6000602082019050919050565b600081519050919050565b600081519050919050565b600081519050919050565b6000602082019050919050565b600073ffffffffffffffffffffffffffffffffffffffff82169050919050565b60008115159050919050565b6000819050919050565b600060048210151561188157fe5b819050919050565b6000819050919050565b600060ff82169050919050565b600073ffffffffffffffffffffffffffffffffffffffff82169050919050565b60008115159050919050565b6000819050919050565b6000819050919050565b60006118eb82611873565b9050919050565b82818337600083830152505050565b60005b8381101561191f578082015181840152602081019050611904565b8381111561192e576000848401525b50505050565b6000601f19601f83011690509190505600a265627a7a72305820b130a24359b451dd509e95e1e62546db270ec4a8cbd30b9e870a17894a607a4e6c6578706572696d656e74616cf50037",
  "source": "import \"./BTU.sol\";\n\npragma solidity ^0.4.19;\npragma experimental ABIEncoderV2;\n\ncontract RES {\n  enum BookingStatus { REQUESTED, REJECTED, CONFIRMED, CANCELLED  }\n  struct availability {\n    uint                     _resourceId;\n    uint                     _type;\n    uint                     _minDeposit;\n    uint                     _commission;\n    uint                     _freeCancelDateTs;\n    uint                     _startDateTs;\n    uint                     _endDateTs;\n    uint\t\t     _quantity;\n    string                   _metaDataLink;\n    bytes32                   _messageHash;\n    bytes                    _signature;\n  }\n\n  struct reservation {\n    address\t\t\t_clientAddress;\n    uint\t\t        _offerId;\n    BookingStatus               _bookingStatus;\n    bytes32                     _reservationHash;\n  }\n\n\n  address BTUAddress = 0x345ca3e014aaf5dca488057592ee47305d9b3e10;\n  uint availabilitiesNextId = 0;\n  uint reservationsNextId = 0;\n\n  mapping (uint => availability) availabilities;\n  uint[] public availabilitiesIds;\n\n  mapping (uint => reservation) reservations;\n  uint[] public reservationsIds;\n\n  function publishAvailability (uint _commission, uint _endDateTs, uint _freeCancelDateTs, bytes32  _messageHash, string _metaDataLink, uint _minDeposit, uint _quantity, uint _resourceId, bytes _signature, uint _startDateTs, uint _type) public {\n    availabilities[availabilitiesNextId] = availability({\n    _resourceId: _resourceId,\n\t  _type: _type,\n\t  _minDeposit: _minDeposit,\n\t  _commission: _commission,\n\t  _freeCancelDateTs: _freeCancelDateTs,\n\t  _startDateTs: _startDateTs,\n\t  _endDateTs: _endDateTs,\n\t  _quantity: _quantity,\n\t  _metaDataLink: _metaDataLink,\n\t  _messageHash: _messageHash,\n\t  _signature: _signature\n\t  });\n\n    availabilitiesIds.push(availabilitiesNextId);\n    availabilitiesNextId++;\n  }\n\n  function size() returns (uint) {\n    return availabilitiesNextId;\n  }\n\n\n  function ListAvailabilities(/*address _requester, string _criterias*/) public constant returns (uint[]) {\n    return availabilitiesIds;\n  }\n\n  function ReadAvailability(uint _availabilityId) view public returns (uint, uint, uint, bytes32, string, uint, uint, uint, bytes, uint, uint) {\n    availability storage a = availabilities[_availabilityId];\n    return (a._commission, a._endDateTs, a._freeCancelDateTs, a._messageHash, a._metaDataLink, a._minDeposit, a._quantity, a._resourceId, a._signature, a._startDateTs, a._type);\n  }\n\n  function getAvailabilityCaution(uint _availabilityId) view public returns (uint) {\n    availability storage a = availabilities[_availabilityId];\n    return (a._minDeposit - a._commission);\n  }\n\n  function ReadReservation(uint _reservationId) view public returns (BookingStatus, address, uint, bytes32) {\n    reservation storage a = reservations[_reservationId];\n    return (a._bookingStatus, a._clientAddress, a._offerId, a._reservationHash);\n  }\n\n  function requestReservation(uint _availabilityId, address _requester) public {\n    approvalTransfer(msg.sender, this/* address(this) */, getAvailabilityCaution(_availabilityId));\n    //simpleTransfer();\n    reservations[reservationsNextId] = reservation({\n      _clientAddress: msg.sender,\n\t  _offerId: _availabilityId,\n\t  _bookingStatus: BookingStatus.REQUESTED,\n\t  _reservationHash: 0\n\t  });\n\n    reservationsIds.push(reservationsNextId);\n    reservationsNextId++;\n  }\n\n  function ListReservations(/*address _requester, string _criterias*/) public constant returns (uint[]) {\n    return reservationsIds;\n  }\n\n  function confirmReservation(bool validate, address _owner, uint _reservationId) public returns (bool success) {\n   uint _offerId = reservations[_reservationId]._offerId;\n   address _to = reservations[_reservationId]._clientAddress; //booker address\n\n    if(!validate)\n      _to = recover(availabilities[_offerId]._messageHash, availabilities[_offerId]._signature);\n\n    return basicTransfer(_to, getAvailabilityCaution(_offerId));\n    }\n\n  function approvalTransfer(address _from, address _to, uint _value) public returns (bool success) {\n    BTU btu = BTU(BTUAddress);\n    return btu.transferFrom(_from, _to, _value);\n  }\n\n  function basicTransfer(address _to, uint256 _value) public returns (bool success){\n    BTU btu = BTU(BTUAddress);\n    return btu.transfer(_to, _value);\n  }\n\n  function GetBTUTotalSupply() public constant returns (uint) {\n    BTU btu = BTU(BTUAddress);\n    return btu.totalSupply();\n  }\n\n  function GetBTUAddress() public constant returns (address) {\n    return BTUAddress;\n  }\n\n  function recover(bytes32 hash, bytes sig) public pure returns (address) {\n    bytes32 r;\n    bytes32 s;\n    uint8 v;\n\n    //Check the signature length\n    if (sig.length != 65) {\n      return (address(0));\n    }\n\n    // Divide the signature in r, s and v variables\n    assembly {\n      r := mload(add(sig, 32))\n      s := mload(add(sig, 64))\n      v := byte(0, mload(add(sig, 96)))\n    }\n\n    // Version of signature should be 27 or 28, but 0 and 1 are also possible versions\n    if (v < 27) {\n      v += 27;\n    }\n\n    // If the version is correct return the signer address\n    if (v != 27 && v != 28) {\n      return (address(0));\n    } else {\n      return ecrecover(hash, v, r, s);\n    }\n  }\n}\n",
  "sourcePath": "/home/boehm-s/ETNA/node-eip808-sdk/ressources/contracts/RES.sol",
  "compiler": {
    "name": "solc",
    "version": "0.4.19+commit.c4cbbb05.Emscripten.clang"
  },
  "schemaVersion": "1.0.1",
  "updatedAt": "2018-02-23T10:42:53.580Z"
}