{
  "contractName": "RES",
  "abi": [
    {
      "constant": true,
      "inputs": [
        {
          "name": "",
          "type": "uint256"
        }
      ],
      "name": "reservations",
      "outputs": [
        {
          "name": "_clientAddress",
          "type": "address"
        },
        {
          "components": [
            {
              "name": "_resourceId",
              "type": "uint256"
            },
            {
              "name": "_type",
              "type": "uint256"
            },
            {
              "name": "_minDeposit",
              "type": "uint256"
            },
            {
              "name": "_commission",
              "type": "uint256"
            },
            {
              "name": "_freeCancelDateTs",
              "type": "uint256"
            },
            {
              "name": "_startDateTs",
              "type": "uint256"
            },
            {
              "name": "_endDateTs",
              "type": "uint256"
            },
            {
              "name": "_quantity",
              "type": "uint256"
            },
            {
              "name": "_metaDataLink",
              "type": "string"
            },
            {
              "name": "_messageHash",
              "type": "string"
            },
            {
              "name": "_signature",
              "type": "bytes"
            }
          ],
          "name": "_offer",
          "type": "tuple"
        },
        {
          "name": "_bookingStatus",
          "type": "uint8"
        },
        {
          "name": "_reservationHash",
          "type": "bytes32"
        }
      ],
      "payable": false,
      "stateMutability": "view",
      "type": "function"
    },
    {
      "constant": true,
      "inputs": [
        {
          "name": "",
          "type": "uint256"
        }
      ],
      "name": "availabilitiesIds",
      "outputs": [
        {
          "name": "",
          "type": "uint256"
        }
      ],
      "payable": false,
      "stateMutability": "view",
      "type": "function"
    },
    {
      "constant": false,
      "inputs": [
        {
          "name": "_commission",
          "type": "uint256"
        },
        {
          "name": "_endDateTs",
          "type": "uint256"
        },
        {
          "name": "_freeCancelDateTs",
          "type": "uint256"
        },
        {
          "name": "_messageHash",
          "type": "string"
        },
        {
          "name": "_metaDataLink",
          "type": "string"
        },
        {
          "name": "_minDeposit",
          "type": "uint256"
        },
        {
          "name": "_quantity",
          "type": "uint256"
        },
        {
          "name": "_resourceId",
          "type": "uint256"
        },
        {
          "name": "_signature",
          "type": "bytes"
        },
        {
          "name": "_startDateTs",
          "type": "uint256"
        },
        {
          "name": "_type",
          "type": "uint256"
        }
      ],
      "name": "publishAvailability",
      "outputs": [],
      "payable": false,
      "stateMutability": "nonpayable",
      "type": "function"
    },
    {
      "constant": false,
      "inputs": [],
      "name": "size",
      "outputs": [
        {
          "name": "",
          "type": "uint256"
        }
      ],
      "payable": false,
      "stateMutability": "nonpayable",
      "type": "function"
    },
    {
      "constant": true,
      "inputs": [],
      "name": "ListAvailabilities",
      "outputs": [
        {
          "name": "",
          "type": "uint256[]"
        }
      ],
      "payable": false,
      "stateMutability": "view",
      "type": "function"
    },
    {
      "constant": true,
      "inputs": [
        {
          "name": "_availabilityId",
          "type": "uint256"
        }
      ],
      "name": "ReadAvailability",
      "outputs": [
        {
          "name": "",
          "type": "uint256"
        },
        {
          "name": "",
          "type": "uint256"
        },
        {
          "name": "",
          "type": "uint256"
        },
        {
          "name": "",
          "type": "string"
        },
        {
          "name": "",
          "type": "string"
        },
        {
          "name": "",
          "type": "uint256"
        },
        {
          "name": "",
          "type": "uint256"
        },
        {
          "name": "",
          "type": "uint256"
        },
        {
          "name": "",
          "type": "bytes"
        },
        {
          "name": "",
          "type": "uint256"
        },
        {
          "name": "",
          "type": "uint256"
        }
      ],
      "payable": false,
      "stateMutability": "view",
      "type": "function"
    },
    {
      "constant": true,
      "inputs": [
        {
          "name": "_requester",
          "type": "address"
        },
        {
          "name": "_criterias",
          "type": "string"
        }
      ],
      "name": "ListReservations",
      "outputs": [
        {
          "components": [
            {
              "name": "_clientAddress",
              "type": "address"
            },
            {
              "components": [
                {
                  "name": "_resourceId",
                  "type": "uint256"
                },
                {
                  "name": "_type",
                  "type": "uint256"
                },
                {
                  "name": "_minDeposit",
                  "type": "uint256"
                },
                {
                  "name": "_commission",
                  "type": "uint256"
                },
                {
                  "name": "_freeCancelDateTs",
                  "type": "uint256"
                },
                {
                  "name": "_startDateTs",
                  "type": "uint256"
                },
                {
                  "name": "_endDateTs",
                  "type": "uint256"
                },
                {
                  "name": "_quantity",
                  "type": "uint256"
                },
                {
                  "name": "_metaDataLink",
                  "type": "string"
                },
                {
                  "name": "_messageHash",
                  "type": "string"
                },
                {
                  "name": "_signature",
                  "type": "bytes"
                }
              ],
              "name": "_offer",
              "type": "tuple"
            },
            {
              "name": "_bookingStatus",
              "type": "uint8"
            },
            {
              "name": "_reservationHash",
              "type": "bytes32"
            }
          ],
          "name": "",
          "type": "tuple[]"
        }
      ],
      "payable": false,
      "stateMutability": "view",
      "type": "function"
    },
    {
      "constant": true,
      "inputs": [
        {
          "name": "_requester",
          "type": "address"
        },
        {
          "components": [
            {
              "name": "_resourceId",
              "type": "uint256"
            },
            {
              "name": "_type",
              "type": "uint256"
            },
            {
              "name": "_minDeposit",
              "type": "uint256"
            },
            {
              "name": "_commission",
              "type": "uint256"
            },
            {
              "name": "_freeCancelDateTs",
              "type": "uint256"
            },
            {
              "name": "_startDateTs",
              "type": "uint256"
            },
            {
              "name": "_endDateTs",
              "type": "uint256"
            },
            {
              "name": "_quantity",
              "type": "uint256"
            },
            {
              "name": "_metaDataLink",
              "type": "string"
            },
            {
              "name": "_messageHash",
              "type": "string"
            },
            {
              "name": "_signature",
              "type": "bytes"
            }
          ],
          "name": "_availability",
          "type": "tuple"
        }
      ],
      "name": "requestReservation",
      "outputs": [
        {
          "name": "status",
          "type": "uint256"
        }
      ],
      "payable": false,
      "stateMutability": "view",
      "type": "function"
    },
    {
      "constant": true,
      "inputs": [
        {
          "name": "_owner",
          "type": "address"
        },
        {
          "name": "_reservationId",
          "type": "uint256"
        }
      ],
      "name": "confirmReservation",
      "outputs": [
        {
          "name": "status",
          "type": "uint256"
        }
      ],
      "payable": false,
      "stateMutability": "view",
      "type": "function"
    },
    {
      "constant": true,
      "inputs": [],
      "name": "GetBTUTotalSupply",
      "outputs": [
        {
          "name": "",
          "type": "uint256"
        }
      ],
      "payable": false,
      "stateMutability": "view",
      "type": "function"
    }
  ],
  "bytecode": "0x606060405273345ca3e014aaf5dca488057592ee47305d9b3e106000806101000a81548173ffffffffffffffffffffffffffffffffffffffff021916908373ffffffffffffffffffffffffffffffffffffffff1602179055506000600155341561006857600080fd5b611ff0806100776000396000f3006060604052600436106100a4576000357c0100000000000000000000000000000000000000000000000000000000900463ffffffff168063067cf832146100a957806340e1edf1146100e257806345b85cf9146101225780635a992b9114610144578063949d225d1461016d5780639f11270914610196578063b1cbda17146101cc578063d04b953314610202578063e59d97031461022b578063e9b82adf14610261575b600080fd5b34156100b457600080fd5b6100c960046100c4903690611499565b610297565b6040516100d99493929190611bc1565b60405180910390f35b34156100ed57600080fd5b61010260046100fd903690611499565b610302565b6040516101199b9a99989796959493929190611c6c565b60405180910390f35b341561012d57600080fd5b610142600461013d9036906114cb565b61056c565b005b341561014f57600080fd5b6101576106c5565b6040516101649190611c51565b60405180910390f35b341561017857600080fd5b610180610779565b60405161018d9190611c51565b60405180910390f35b34156101a157600080fd5b6101b660046101b1903690611499565b610783565b6040516101c39190611c51565b60405180910390f35b34156101d757600080fd5b6101ec60046101e7903690611388565b6107a7565b6040516101f99190611c0d565b60405180910390f35b341561020d57600080fd5b610215610af1565b6040516102229190611c2f565b60405180910390f35b341561023657600080fd5b61024b6004610246903690611454565b610b4f565b6040516102589190611c51565b60405180910390f35b341561026c57600080fd5b610281600461027c9036906113ee565b610b5b565b60405161028e9190611c51565b60405180910390f35b6004818154811015156102a657fe5b90600052602060002090600e02016000915090508060000160009054906101000a900473ffffffffffffffffffffffffffffffffffffffff1690806001019080600c0160009054906101000a900460ff169080600d0154905084565b600080600061030f610d14565b610317610d14565b6000806000610324610d28565b6000806000600260008e81526020019081526020016000209050806003015481600601548260040154836009018460080185600201548660070154876000015488600a0189600501548a60010154878054600181600116156101000203166002900480601f0160208091040260200160405190810160405280929190818152602001828054600181600116156101000203166002900480156104075780601f106103dc57610100808354040283529160200191610407565b820191906000526020600020905b8154815290600101906020018083116103ea57829003601f168201915b50505050509750868054600181600116156101000203166002900480601f0160208091040260200160405190810160405280929190818152602001828054600181600116156101000203166002900480156104a35780601f10610478576101008083540402835291602001916104a3565b820191906000526020600020905b81548152906001019060200180831161048657829003601f168201915b50505050509650828054600181600116156101000203166002900480601f01602080910402602001604051908101604052809291908181526020018280546001816001161561010002031660029004801561053f5780601f106105145761010080835404028352916020019161053f565b820191906000526020600020905b81548152906001019060200180831161052257829003601f168201915b505050505092509b509b509b509b509b509b509b509b509b509b509b505091939597999b90929496989a50565b610160604051908101604052808581526020018281526020018781526020018c81526020018a81526020018381526020018b815260200186815260200188815260200189815260200184815250600260006001548152602001908152602001600020600082015181600001556020820151816001015560408201518160020155606082015181600301556080820151816004015560a0820151816005015560c0820151816006015560e0820151816007015561010082015181600801908051906020019061063b929190610d3c565b50610120820151816009019080519060200190610659929190610d3c565b5061014082015181600a019080519060200190610677929190610dbc565b509050506003805480600101828161068f9190610e3c565b91600052602060002090016000600154909190915055506001600081548092919060010191905055505050505050505050505050565b6000806000809054906101000a900473ffffffffffffffffffffffffffffffffffffffff1690508073ffffffffffffffffffffffffffffffffffffffff166318160ddd6000604051602001526040518163ffffffff167c0100000000000000000000000000000000000000000000000000000000028152600401602060405180830381600087803b151561075857600080fd5b6102c65a03f1151561076957600080fd5b5050506040518051905091505090565b6000600154905090565b60038181548110151561079257fe5b90600052602060002090016000915090505481565b6107af610e68565b6004805480602002602001604051908101604052809291908181526020016000905b82821015610ae557838290600052602060002090600e0201608060405190810160405290816000820160009054906101000a900473ffffffffffffffffffffffffffffffffffffffff1673ffffffffffffffffffffffffffffffffffffffff1673ffffffffffffffffffffffffffffffffffffffff1681526020016001820161016060405190810160405290816000820154815260200160018201548152602001600282015481526020016003820154815260200160048201548152602001600582015481526020016006820154815260200160078201548152602001600882018054600181600116156101000203166002900480601f0160208091040260200160405190810160405280929190818152602001828054600181600116156101000203166002900480156109465780601f1061091b57610100808354040283529160200191610946565b820191906000526020600020905b81548152906001019060200180831161092957829003601f168201915b50505050508152602001600982018054600181600116156101000203166002900480601f0160208091040260200160405190810160405280929190818152602001828054600181600116156101000203166002900480156109e85780601f106109bd576101008083540402835291602001916109e8565b820191906000526020600020905b8154815290600101906020018083116109cb57829003601f168201915b50505050508152602001600a82018054600181600116156101000203166002900480601f016020809104026020016040519081016040528092919081815260200182805460018160011615610100020316600290048015610a8a5780601f10610a5f57610100808354040283529160200191610a8a565b820191906000526020600020905b815481529060010190602001808311610a6d57829003601f168201915b5050505050815250508152602001600c820160009054906101000a900460ff166003811115610ab557fe5b6003811115610ac057fe5b8152602001600d820154600019166000191681525050815260200190600101906107d1565b50505050905092915050565b610af9610e7c565b6003805480602002602001604051908101604052809291908181526020018280548015610b4557602002820191906000526020600020905b815481526020019060010190808311610b31575b5050505050905090565b60006001905092915050565b600060048054806001018281610b719190610e90565b91600052602060002090600e020160006080604051908101604052808773ffffffffffffffffffffffffffffffffffffffff16815260200186815260200160006003811115610bbc57fe5b8152602001600060010260001916815250909190915060008201518160000160006101000a81548173ffffffffffffffffffffffffffffffffffffffff021916908373ffffffffffffffffffffffffffffffffffffffff160217905550602082015181600101600082015181600001556020820151816001015560408201518160020155606082015181600301556080820151816004015560a0820151816005015560c0820151816006015560e08201518160070155610100820151816008019080519060200190610c8f929190610d3c565b50610120820151816009019080519060200190610cad929190610d3c565b5061014082015181600a019080519060200190610ccb929190610dbc565b505050604082015181600c0160006101000a81548160ff02191690836003811115610cf257fe5b0217905550606082015181600d01906000191690555050506001905092915050565b602060405190810160405280600081525090565b602060405190810160405280600081525090565b828054600181600116156101000203166002900490600052602060002090601f016020900481019282601f10610d7d57805160ff1916838001178555610dab565b82800160010185558215610dab579182015b82811115610daa578251825591602001919060010190610d8f565b5b509050610db89190610ec2565b5090565b828054600181600116156101000203166002900490600052602060002090601f016020900481019282601f10610dfd57805160ff1916838001178555610e2b565b82800160010185558215610e2b579182015b82811115610e2a578251825591602001919060010190610e0f565b5b509050610e389190610ec2565b5090565b815481835581811511610e6357818360005260206000209182019101610e629190610ec2565b5b505050565b602060405190810160405280600081525090565b602060405190810160405280600081525090565b815481835581811511610ebd57600e0281600e028360005260206000209182019101610ebc9190610ee7565b5b505050565b610ee491905b80821115610ee0576000816000905550600101610ec8565b5090565b90565b610fbd91905b80821115610fb957600080820160006101000a81549073ffffffffffffffffffffffffffffffffffffffff0219169055600182016000808201600090556001820160009055600282016000905560038201600090556004820160009055600582016000905560068201600090556007820160009055600882016000610f729190610fc0565b600982016000610f829190610fc0565b600a82016000610f929190611008565b5050600c820160006101000a81549060ff0219169055600d82016000905550600e01610eed565b5090565b90565b50805460018160011615610100020316600290046000825580601f10610fe65750611005565b601f0160209004906000526020600020908101906110049190610ec2565b5b50565b50805460018160011615610100020316600290046000825580601f1061102e575061104d565b601f01602090049060005260206000209081019061104c9190610ec2565b5b50565b600061105c8235611f1a565b905092915050565b600082601f830112600081146110795761107e565b600080fd5b50813561109261108d82611d62565b611d2c565b915080825260208301602083018583830111600181146110b1576110b6565b600080fd5b506110c2838284611f56565b50505092915050565b600082601f830112600081146110e0576110e5565b600080fd5b5081356110f96110f482611d97565b611d2c565b915080825260208301602083018583830111600181146111185761111d565b600080fd5b50611129838284611f56565b50505092915050565b600082601f830112600081146111475761114c565b600080fd5b50813561116061115b82611dcc565b611d2c565b9150808252602083016020830185838301116001811461117f57611184565b600080fd5b50611190838284611f56565b50505092915050565b600082601f830112600081146111ae576111b3565b600080fd5b5081356111c76111c282611e01565b611d2c565b915080825260208301602083018583830111600181146111e6576111eb565b600080fd5b506111f7838284611f56565b50505092915050565b600061016082840312600181146112165761121b565b600080fd5b50611227610160611d2c565b9050600061123784828501611374565b600083015250602061124b84828501611374565b602083015250604061125f84828501611374565b604083015250606061127384828501611374565b606083015250608061128784828501611374565b60808301525060a061129b84828501611374565b60a08301525060c06112af84828501611374565b60c08301525060e06112c384828501611374565b60e08301525061010082013567ffffffffffffffff8111600181146112e7576112ec565b600080fd5b506112f984828501611132565b6101008301525061012082013567ffffffffffffffff81116001811461131e57611323565b600080fd5b5061133084828501611132565b6101208301525061014082013567ffffffffffffffff8111600181146113555761135a565b600080fd5b5061136784828501611064565b6101408301525092915050565b60006113808235611f3a565b905092915050565b6000806040838503126001811461139e576113a3565b600080fd5b5060006113b285828601611050565b925050602083013567ffffffffffffffff8111600181146113d2576113d7565b600080fd5b506113e485828601611199565b9150509250929050565b6000806040838503126001811461140457611409565b600080fd5b50600061141885828601611050565b925050602083013567ffffffffffffffff8111600181146114385761143d565b600080fd5b5061144a85828601611200565b9150509250929050565b6000806040838503126001811461146a5761146f565b600080fd5b50600061147e85828601611050565b925050602061148f85828601611374565b9150509250929050565b6000602082840312600181146114ae576114b3565b600080fd5b5060006114c284828501611374565b91505092915050565b60008060008060008060008060008060006101608c8e0312600181146114f0576114f5565b600080fd5b5060006115048e828f01611374565b9b505060206115158e828f01611374565b9a505060406115268e828f01611374565b99505060608c013567ffffffffffffffff8111600181146115465761154b565b600080fd5b506115588e828f01611199565b98505060808c013567ffffffffffffffff8111600181146115785761157d565b600080fd5b5061158a8e828f01611199565b97505060a061159b8e828f01611374565b96505060c06115ac8e828f01611374565b95505060e06115bd8e828f01611374565b9450506101008c013567ffffffffffffffff8111600181146115de576115e3565b600080fd5b506115f08e828f016110cb565b9350506101206116028e828f01611374565b9250506101406116148e828f01611374565b9150509295989b509295989b9093969950565b61163081611ed0565b82525050565b600061164182611e74565b8084526020840193508360208202850161165a85611e36565b60005b84811015611693578383038852611675838351611b4f565b925061168082611eb6565b915060208801975060018101905061165d565b508196508694505050505092915050565b60006116af82611e7f565b8084526020840193506116c183611e43565b60005b828110156116f3576116d7868351611bb2565b6116e082611ec3565b91506020860195506001810190506116c4565b50849250505092915050565b61170881611ef0565b82525050565b600061171982611e95565b80845261172d816020860160208601611f65565b61173681611f98565b602085010191505092915050565b600061174f82611e8a565b808452611763816020860160208601611f65565b61176c81611f98565b602085010191505092915050565b60008154600181166000811461179757600181146117b7576117f8565b607f600283041680865260ff1983166020870152604086019350506117f8565b600282048086526020860195506117cd85611e50565b60005b828110156117ef578154818901526001820191506020810190506117d0565b80880195505050505b505092915050565b61180981611f44565b82525050565b600061181a82611eab565b80845261182e816020860160208601611f65565b61183781611f98565b602085010191505092915050565b600061185082611ea0565b808452611864816020860160208601611f65565b61186d81611f98565b602085010191505092915050565b60008154600181166000811461189857600181146118b8576118f9565b607f600283041680865260ff1983166020870152604086019350506118f9565b600282048086526020860195506118ce85611e62565b60005b828110156118f0578154818901526001820191506020810190506118d1565b80880195505050505b505092915050565b60006101608301600083015161191a6000860182611bb2565b50602083015161192d6020860182611bb2565b5060408301516119406040860182611bb2565b5060608301516119536060860182611bb2565b5060808301516119666080860182611bb2565b5060a083015161197960a0860182611bb2565b5060c083015161198c60c0860182611bb2565b5060e083015161199f60e0860182611bb2565b506101008301518482036101008601526119b98282611845565b9150506101208301518482036101208601526119d58282611845565b9150506101408301518482036101408601526119f18282611744565b9150508091505092915050565b600061016083016000808401549050611a1681611fa9565b611a236000870182611bb2565b5060018401549050611a3481611fa9565b611a416020870182611bb2565b5060028401549050611a5281611fa9565b611a5f6040870182611bb2565b5060038401549050611a7081611fa9565b611a7d6060870182611bb2565b5060048401549050611a8e81611fa9565b611a9b6080870182611bb2565b5060058401549050611aac81611fa9565b611ab960a0870182611bb2565b5060068401549050611aca81611fa9565b611ad760c0870182611bb2565b5060078401549050611ae881611fa9565b611af560e0870182611bb2565b5060088401858303610100870152611b0d838261187b565b92505060098401858303610120870152611b27838261187b565b925050600a8401858303610140870152611b41838261177a565b925050819250505092915050565b6000608083016000830151611b676000860182611627565b5060208301518482036020860152611b7f8282611901565b9150506040830151611b946040860182611800565b506060830151611ba760608601826116ff565b508091505092915050565b611bbb81611f10565b82525050565b6000608082019050611bd66000830187611627565b8181036020830152611be881866119fe565b9050611bf76040830185611800565b611c0460608301846116ff565b95945050505050565b60006020820190508181036000830152611c278184611636565b905092915050565b60006020820190508181036000830152611c4981846116a4565b905092915050565b6000602082019050611c666000830184611bb2565b92915050565b600061016082019050611c82600083018e611bb2565b611c8f602083018d611bb2565b611c9c604083018c611bb2565b8181036060830152611cae818b61180f565b90508181036080830152611cc2818a61180f565b9050611cd160a0830189611bb2565b611cde60c0830188611bb2565b611ceb60e0830187611bb2565b818103610100830152611cfe818661170e565b9050611d0e610120830185611bb2565b611d1c610140830184611bb2565b9c9b505050505050505050505050565b6000604051905081810181811067ffffffffffffffff82111760018114611d5257611d57565b600080fd5b508060405250919050565b600067ffffffffffffffff821160018114611d7c57611d81565b600080fd5b50601f19601f8301169050602081019050919050565b600067ffffffffffffffff821160018114611db157611db6565b600080fd5b50601f19601f8301169050602081019050919050565b600067ffffffffffffffff821160018114611de657611deb565b600080fd5b50601f19601f8301169050602081019050919050565b600067ffffffffffffffff821160018114611e1b57611e20565b600080fd5b50601f19601f8301169050602081019050919050565b6000602082019050919050565b6000602082019050919050565b60008160005260206000209050919050565b60008160005260206000209050919050565b600081519050919050565b600081519050919050565b600081519050919050565b600081519050919050565b600081519050919050565b600081519050919050565b6000602082019050919050565b6000602082019050919050565b600073ffffffffffffffffffffffffffffffffffffffff82169050919050565b6000819050919050565b6000600482101515611f0857fe5b819050919050565b6000819050919050565b600073ffffffffffffffffffffffffffffffffffffffff82169050919050565b6000819050919050565b6000611f4f82611efa565b9050919050565b82818337600083830152505050565b60005b83811015611f83578082015181840152602081019050611f68565b83811115611f92576000848401525b50505050565b6000601f19601f8301169050919050565b60006001820490509190505600a265627a7a7230582073d1de6afe5b667c0416ec9fe349570ee863bd660ca4ebacfcdd8d0f52818e7f6c6578706572696d656e74616cf50037",
  "source": "import \"./BTU.sol\";\n\npragma solidity ^0.4.19;\npragma experimental ABIEncoderV2;\n\ncontract RES {\n  enum BookingStatus { REQUESTED, REJECTED, CONFIRMED, CANCELLED  }\n  struct availability {\n    uint                     _resourceId;\n    uint                     _type;\n    uint                     _minDeposit;\n    uint                     _commission;\n    uint                     _freeCancelDateTs;\n    uint                     _startDateTs;\n    uint                     _endDateTs;\n    uint\t\t     _quantity;\n    string                   _metaDataLink;\n    string                   _messageHash;\n    bytes                    _signature;\n  }\n\n  struct reservation {\n    address\t\t\t_clientAddress;\n    availability\t\t_offer;\n    BookingStatus               _bookingStatus;\n    bytes32                     _reservationHash;\n  }\n\n\n  address BTUAddress = 0x345ca3e014aaf5dca488057592ee47305d9b3e10;\n  uint availabilitiesNextId = 0;\n\n  mapping (uint => availability) availabilities;\n  uint[] public availabilitiesIds;\n\n  reservation[] public reservations;\n\n  function publishAvailability (uint _commission, uint _endDateTs, uint _freeCancelDateTs, string  _messageHash, string _metaDataLink, uint _minDeposit, uint _quantity, uint _resourceId, bytes _signature, uint _startDateTs, uint _type) public {\n    availabilities[availabilitiesNextId] = availability({\n      _resourceId: _resourceId,\n\t  _type: _type,\n\t  _minDeposit: _minDeposit,\n\t  _commission: _commission,\n\t  _freeCancelDateTs: _freeCancelDateTs,\n\t  _startDateTs: _startDateTs,\n\t  _endDateTs: _endDateTs,\n\t  _quantity: _quantity,\n\t  _metaDataLink: _metaDataLink,\n\t  _messageHash: _messageHash,\n\t  _signature: _signature\n\t  });\n\n    availabilitiesIds.push(availabilitiesNextId);\n    availabilitiesNextId++;\n  }\n\n  function size() returns (uint) {\n    return availabilitiesNextId;\n  }\n\n\n  function ListAvailabilities(/* address _requester, string _criterias */) public constant returns (uint[]) {\n    return availabilitiesIds;\n  }\n\n  function ReadAvailability(uint _availabilityId) view public returns (uint, uint, uint, string, string, uint, uint, uint, bytes, uint, uint) {\n    availability storage a = availabilities[_availabilityId];\n    return (a._commission, a._endDateTs, a._freeCancelDateTs, a._messageHash, a._metaDataLink, a._minDeposit, a._quantity, a._resourceId, a._signature, a._startDateTs, a._type);\n  }\n\n  function ListReservations(address _requester, string _criterias) public constant returns (reservation[]) {\n    return reservations;\n  }\n\n  function requestReservation(address _requester, availability _availability) public constant returns (uint status) {\n    reservations.push(reservation({\n\t_clientAddress: _requester,\n\t    _offer: _availability,\n\t    _bookingStatus: BookingStatus.REQUESTED,\n\t    _reservationHash: 0\n\t    }));\n\n\n    return 1;\n  }\n\n  function confirmReservation(address _owner, uint _reservationId) public constant returns (uint status) {\n    return 1;\n  }\n\n  function GetBTUTotalSupply() public constant returns (uint) {\n    BTU btu = BTU(BTUAddress);\n    return btu.totalSupply();\n  }\n}\n",
  "sourcePath": "/home/boehm-s/ETNA/node-eip808-sdk/ressources/contracts/RES.sol",
  "compiler": {
    "name": "solc",
    "version": "0.4.19+commit.c4cbbb05.Emscripten.clang"
  },
  "schemaVersion": "1.0.1",
  "updatedAt": "2018-02-23T06:22:29.976Z"
}