{
  "contractName": "RES",
  "abi": [
    {
      "constant": true,
      "inputs": [
        {
          "name": "",
          "type": "uint256"
        }
      ],
      "name": "reservations",
      "outputs": [
        {
          "name": "_clientAddress",
          "type": "address"
        },
        {
          "components": [
            {
              "name": "_resourceId",
              "type": "uint256"
            },
            {
              "name": "_type",
              "type": "uint256"
            },
            {
              "name": "_minDeposit",
              "type": "uint256"
            },
            {
              "name": "_commission",
              "type": "uint256"
            },
            {
              "name": "_freeCancelDateTs",
              "type": "uint256"
            },
            {
              "name": "_startDateTs",
              "type": "uint256"
            },
            {
              "name": "_endDateTs",
              "type": "uint256"
            },
            {
              "name": "_quantity",
              "type": "uint256"
            },
            {
              "name": "_metaDataLink",
              "type": "string"
            }
          ],
          "name": "_offer",
          "type": "tuple"
        },
        {
          "name": "_bookingStatus",
          "type": "uint8"
        }
      ],
      "payable": false,
      "stateMutability": "view",
      "type": "function"
    },
    {
      "constant": true,
      "inputs": [
        {
          "name": "",
          "type": "uint256"
        }
      ],
      "name": "availabilitiesIds",
      "outputs": [
        {
          "name": "",
          "type": "uint256"
        }
      ],
      "payable": false,
      "stateMutability": "view",
      "type": "function"
    },
    {
      "constant": false,
      "inputs": [
        {
          "name": "_commission",
          "type": "uint256"
        },
        {
          "name": "_endDateTs",
          "type": "uint256"
        },
        {
          "name": "_freeCancelDateTs",
          "type": "uint256"
        },
        {
          "name": "_metaDataLink",
          "type": "string"
        },
        {
          "name": "_minDeposit",
          "type": "uint256"
        },
        {
          "name": "_quantity",
          "type": "uint256"
        },
        {
          "name": "_resourceId",
          "type": "uint256"
        },
        {
          "name": "_startDateTs",
          "type": "uint256"
        },
        {
          "name": "_type",
          "type": "uint256"
        }
      ],
      "name": "publishAvailability",
      "outputs": [],
      "payable": false,
      "stateMutability": "nonpayable",
      "type": "function"
    },
    {
      "constant": false,
      "inputs": [],
      "name": "size",
      "outputs": [
        {
          "name": "",
          "type": "uint256"
        }
      ],
      "payable": false,
      "stateMutability": "nonpayable",
      "type": "function"
    },
    {
      "constant": true,
      "inputs": [],
      "name": "ListAvailabilities",
      "outputs": [
        {
          "name": "",
          "type": "uint256[]"
        }
      ],
      "payable": false,
      "stateMutability": "view",
      "type": "function"
    },
    {
      "constant": true,
      "inputs": [
        {
          "name": "_availabilityId",
          "type": "uint256"
        }
      ],
      "name": "ReadAvailability",
      "outputs": [
        {
          "name": "",
          "type": "uint256"
        },
        {
          "name": "",
          "type": "uint256"
        },
        {
          "name": "",
          "type": "uint256"
        },
        {
          "name": "",
          "type": "string"
        },
        {
          "name": "",
          "type": "uint256"
        },
        {
          "name": "",
          "type": "uint256"
        },
        {
          "name": "",
          "type": "uint256"
        },
        {
          "name": "",
          "type": "uint256"
        },
        {
          "name": "",
          "type": "uint256"
        }
      ],
      "payable": false,
      "stateMutability": "view",
      "type": "function"
    },
    {
      "constant": true,
      "inputs": [
        {
          "name": "_requester",
          "type": "address"
        },
        {
          "name": "_criterias",
          "type": "string"
        }
      ],
      "name": "ListReservations",
      "outputs": [
        {
          "components": [
            {
              "name": "_clientAddress",
              "type": "address"
            },
            {
              "components": [
                {
                  "name": "_resourceId",
                  "type": "uint256"
                },
                {
                  "name": "_type",
                  "type": "uint256"
                },
                {
                  "name": "_minDeposit",
                  "type": "uint256"
                },
                {
                  "name": "_commission",
                  "type": "uint256"
                },
                {
                  "name": "_freeCancelDateTs",
                  "type": "uint256"
                },
                {
                  "name": "_startDateTs",
                  "type": "uint256"
                },
                {
                  "name": "_endDateTs",
                  "type": "uint256"
                },
                {
                  "name": "_quantity",
                  "type": "uint256"
                },
                {
                  "name": "_metaDataLink",
                  "type": "string"
                }
              ],
              "name": "_offer",
              "type": "tuple"
            },
            {
              "name": "_bookingStatus",
              "type": "uint8"
            }
          ],
          "name": "",
          "type": "tuple[]"
        }
      ],
      "payable": false,
      "stateMutability": "view",
      "type": "function"
    },
    {
      "constant": true,
      "inputs": [
        {
          "name": "_requester",
          "type": "address"
        },
        {
          "components": [
            {
              "name": "_resourceId",
              "type": "uint256"
            },
            {
              "name": "_type",
              "type": "uint256"
            },
            {
              "name": "_minDeposit",
              "type": "uint256"
            },
            {
              "name": "_commission",
              "type": "uint256"
            },
            {
              "name": "_freeCancelDateTs",
              "type": "uint256"
            },
            {
              "name": "_startDateTs",
              "type": "uint256"
            },
            {
              "name": "_endDateTs",
              "type": "uint256"
            },
            {
              "name": "_quantity",
              "type": "uint256"
            },
            {
              "name": "_metaDataLink",
              "type": "string"
            }
          ],
          "name": "_availability",
          "type": "tuple"
        }
      ],
      "name": "requestReservation",
      "outputs": [
        {
          "name": "status",
          "type": "uint256"
        }
      ],
      "payable": false,
      "stateMutability": "view",
      "type": "function"
    },
    {
      "constant": true,
      "inputs": [
        {
          "name": "_owner",
          "type": "address"
        },
        {
          "name": "_reservationId",
          "type": "uint256"
        }
      ],
      "name": "confirmReservation",
      "outputs": [
        {
          "name": "status",
          "type": "uint256"
        }
      ],
      "payable": false,
      "stateMutability": "view",
      "type": "function"
    }
  ],
  "bytecode": "0x606060405260008055341561001357600080fd5b6116a8806100226000396000f300606060405260043610610099576000357c0100000000000000000000000000000000000000000000000000000000900463ffffffff168063067cf8321461009e57806326263aca146100d657806340e1edf11461010c578063949d225d1461014a5780639f11270914610173578063b1cbda17146101a9578063c89a9082146101df578063d04b953314610201578063e59d97031461022a575b600080fd5b34156100a957600080fd5b6100be60046100b9903690610e13565b610260565b6040516100cd9392919061134f565b60405180910390f35b34156100e157600080fd5b6100f660046100f1903690610d68565b6102c5565b60405161010391906113d1565b60405180910390f35b341561011757600080fd5b61012c6004610127903690610e13565b610424565b604051610141999897969594939291906113ec565b60405180910390f35b341561015557600080fd5b61015d610537565b60405161016a91906113d1565b60405180910390f35b341561017e57600080fd5b610193600461018e903690610e13565b610540565b6040516101a091906113d1565b60405180910390f35b34156101b457600080fd5b6101c960046101c4903690610d02565b610564565b6040516101d6919061138d565b60405180910390f35b34156101ea57600080fd5b6101ff60046101fa903690610e45565b610758565b005b341561020c57600080fd5b610214610864565b60405161022191906113af565b60405180910390f35b341561023557600080fd5b61024a6004610245903690610dce565b6108c2565b60405161025791906113d1565b60405180910390f35b60038181548110151561026f57fe5b90600052602060002090600b02016000915090508060000160009054906101000a900473ffffffffffffffffffffffffffffffffffffffff1690806001019080600a0160009054906101000a900460ff16905083565b6000600380548060010182816102db91906108ce565b91600052602060002090600b020160006060604051908101604052808773ffffffffffffffffffffffffffffffffffffffff1681526020018681526020016000600381111561032657fe5b815250909190915060008201518160000160006101000a81548173ffffffffffffffffffffffffffffffffffffffff021916908373ffffffffffffffffffffffffffffffffffffffff160217905550602082015181600101600082015181600001556020820151816001015560408201518160020155606082015181600301556080820151816004015560a0820151816005015560c0820151816006015560e082015181600701556101008201518160080190805190602001906103eb929190610900565b505050604082015181600a0160006101000a81548160ff0219169083600381111561041257fe5b02179055505050506001905092915050565b6000806000610431610980565b600080600080600080600160008c815260200190815260200160002090508060030154816006015482600401548360080184600201548560070154866000015487600501548860010154858054600181600116156101000203166002900480601f0160208091040260200160405190810160405280929190818152602001828054600181600116156101000203166002900480156105105780601f106104e557610100808354040283529160200191610510565b820191906000526020600020905b8154815290600101906020018083116104f357829003601f168201915b50505050509550995099509950995099509950995099509950509193959799909294969850565b60008054905090565b60028181548110151561054f57fe5b90600052602060002090016000915090505481565b61056c610994565b6003805480602002602001604051908101604052809291908181526020016000905b8282101561074c57838290600052602060002090600b0201606060405190810160405290816000820160009054906101000a900473ffffffffffffffffffffffffffffffffffffffff1673ffffffffffffffffffffffffffffffffffffffff1673ffffffffffffffffffffffffffffffffffffffff1681526020016001820161012060405190810160405290816000820154815260200160018201548152602001600282015481526020016003820154815260200160048201548152602001600582015481526020016006820154815260200160078201548152602001600882018054600181600116156101000203166002900480601f0160208091040260200160405190810160405280929190818152602001828054600181600116156101000203166002900480156107035780601f106106d857610100808354040283529160200191610703565b820191906000526020600020905b8154815290600101906020018083116106e657829003601f168201915b5050505050815250508152602001600a820160009054906101000a900460ff16600381111561072e57fe5b600381111561073957fe5b815250508152602001906001019061058e565b50505050905092915050565b610120604051908101604052808481526020018281526020018681526020018a8152602001888152602001838152602001898152602001858152602001878152506001600080548152602001908152602001600020600082015181600001556020820151816001015560408201518160020155606082015181600301556080820151816004015560a0820151816005015560c0820151816006015560e0820151816007015561010082015181600801908051906020019061081a929190610900565b509050506002805480600101828161083291906109a8565b916000526020600020900160008054909190915055506000808154809291906001019190505550505050505050505050565b61086c6109d4565b60028054806020026020016040519081016040528092919081815260200182805480156108b857602002820191906000526020600020905b8154815260200190600101908083116108a4575b5050505050905090565b60006001905092915050565b8154818355818115116108fb57600b0281600b0283600052602060002091820191016108fa91906109e8565b5b505050565b828054600181600116156101000203166002900490600052602060002090601f016020900481019282601f1061094157805160ff191683800117855561096f565b8280016001018555821561096f579182015b8281111561096e578251825591602001919060010190610953565b5b50905061097c9190610a99565b5090565b602060405190810160405280600081525090565b602060405190810160405280600081525090565b8154818355818115116109cf578183600052602060002091820191016109ce9190610a99565b5b505050565b602060405190810160405280600081525090565b610a9691905b80821115610a9257600080820160006101000a81549073ffffffffffffffffffffffffffffffffffffffff0219169055600182016000808201600090556001820160009055600282016000905560038201600090556004820160009055600582016000905560068201600090556007820160009055600882016000610a739190610abe565b5050600a820160006101000a81549060ff021916905550600b016109ee565b5090565b90565b610abb91905b80821115610ab7576000816000905550600101610a9f565b5090565b90565b50805460018160011615610100020316600290046000825580601f10610ae45750610b03565b601f016020900490600052602060002090810190610b029190610a99565b5b50565b6000610b1282356115d2565b905092915050565b600082601f83011260008114610b2f57610b34565b600080fd5b508135610b48610b43826114b6565b611480565b91508082526020830160208301858383011160018114610b6757610b6c565b600080fd5b50610b7883828461160e565b50505092915050565b600082601f83011260008114610b9657610b9b565b600080fd5b508135610baf610baa826114eb565b611480565b91508082526020830160208301858383011160018114610bce57610bd3565b600080fd5b50610bdf83828461160e565b50505092915050565b60006101208284031260018114610bfe57610c03565b600080fd5b50610c0f610120611480565b90506000610c1f84828501610cee565b6000830152506020610c3384828501610cee565b6020830152506040610c4784828501610cee565b6040830152506060610c5b84828501610cee565b6060830152506080610c6f84828501610cee565b60808301525060a0610c8384828501610cee565b60a08301525060c0610c9784828501610cee565b60c08301525060e0610cab84828501610cee565b60e08301525061010082013567ffffffffffffffff811160018114610ccf57610cd4565b600080fd5b50610ce184828501610b1a565b6101008301525092915050565b6000610cfa82356115f2565b905092915050565b60008060408385031260018114610d1857610d1d565b600080fd5b506000610d2c85828601610b06565b925050602083013567ffffffffffffffff811160018114610d4c57610d51565b600080fd5b50610d5e85828601610b81565b9150509250929050565b60008060408385031260018114610d7e57610d83565b600080fd5b506000610d9285828601610b06565b925050602083013567ffffffffffffffff811160018114610db257610db7565b600080fd5b50610dc485828601610be8565b9150509250929050565b60008060408385031260018114610de457610de9565b600080fd5b506000610df885828601610b06565b9250506020610e0985828601610cee565b9150509250929050565b600060208284031260018114610e2857610e2d565b600080fd5b506000610e3c84828501610cee565b91505092915050565b60008060008060008060008060006101208a8c031260018114610e6757610e6c565b600080fd5b506000610e7b8c828d01610cee565b9950506020610e8c8c828d01610cee565b9850506040610e9d8c828d01610cee565b97505060608a013567ffffffffffffffff811160018114610ebd57610ec2565b600080fd5b50610ecf8c828d01610b81565b9650506080610ee08c828d01610cee565b95505060a0610ef18c828d01610cee565b94505060c0610f028c828d01610cee565b93505060e0610f138c828d01610cee565b925050610100610f258c828d01610cee565b9150509295985092959850929598565b610f3e81611592565b82525050565b6000610f4f8261154c565b80845260208401935083602082028501610f6885611520565b60005b84811015610fa1578383038852610f838383516112f0565b9250610f8e82611578565b9150602088019750600181019050610f6b565b508196508694505050505092915050565b6000610fbd82611557565b808452602084019350610fcf8361152d565b60005b8281101561100157610fe5868351611340565b610fee82611585565b9150602086019550600181019050610fd2565b50849250505092915050565b611016816115fc565b82525050565b60006110278261156d565b80845261103b81602086016020860161161d565b61104481611650565b602085010191505092915050565b600061105d82611562565b80845261107181602086016020860161161d565b61107a81611650565b602085010191505092915050565b6000815460018116600081146110a557600181146110c557611106565b607f600283041680865260ff198316602087015260408601935050611106565b600282048086526020860195506110db8561153a565b60005b828110156110fd578154818901526001820191506020810190506110de565b80880195505050505b505092915050565b6000610120830160008301516111276000860182611340565b50602083015161113a6020860182611340565b50604083015161114d6040860182611340565b5060608301516111606060860182611340565b5060808301516111736080860182611340565b5060a083015161118660a0860182611340565b5060c083015161119960c0860182611340565b5060e08301516111ac60e0860182611340565b506101008301518482036101008601526111c68282611052565b9150508091505092915050565b6000610120830160008084015490506111eb81611661565b6111f86000870182611340565b506001840154905061120981611661565b6112166020870182611340565b506002840154905061122781611661565b6112346040870182611340565b506003840154905061124581611661565b6112526060870182611340565b506004840154905061126381611661565b6112706080870182611340565b506005840154905061128181611661565b61128e60a0870182611340565b506006840154905061129f81611661565b6112ac60c0870182611340565b50600784015490506112bd81611661565b6112ca60e0870182611340565b50600884018583036101008701526112e28382611088565b925050819250505092915050565b60006060830160008301516113086000860182610f35565b5060208301518482036020860152611320828261110e565b9150506040830151611335604086018261100d565b508091505092915050565b611349816115c8565b82525050565b60006060820190506113646000830186610f35565b818103602083015261137681856111d3565b9050611385604083018461100d565b949350505050565b600060208201905081810360008301526113a78184610f44565b905092915050565b600060208201905081810360008301526113c98184610fb2565b905092915050565b60006020820190506113e66000830184611340565b92915050565b600061012082019050611402600083018c611340565b61140f602083018b611340565b61141c604083018a611340565b818103606083015261142e818961101c565b905061143d6080830188611340565b61144a60a0830187611340565b61145760c0830186611340565b61146460e0830185611340565b611472610100830184611340565b9a9950505050505050505050565b6000604051905081810181811067ffffffffffffffff821117600181146114a6576114ab565b600080fd5b508060405250919050565b600067ffffffffffffffff8211600181146114d0576114d5565b600080fd5b50601f19601f8301169050602081019050919050565b600067ffffffffffffffff8211600181146115055761150a565b600080fd5b50601f19601f8301169050602081019050919050565b6000602082019050919050565b6000602082019050919050565b60008160005260206000209050919050565b600081519050919050565b600081519050919050565b600081519050919050565b600081519050919050565b6000602082019050919050565b6000602082019050919050565b600073ffffffffffffffffffffffffffffffffffffffff82169050919050565b60006004821015156115c057fe5b819050919050565b6000819050919050565b600073ffffffffffffffffffffffffffffffffffffffff82169050919050565b6000819050919050565b6000611607826115b2565b9050919050565b82818337600083830152505050565b60005b8381101561163b578082015181840152602081019050611620565b8381111561164a576000848401525b50505050565b6000601f19601f8301169050919050565b60006001820490509190505600a265627a7a72305820cd57648b81d66322d3ae0b5e98b3a76bdaa06fd4659268f8e2be80fdc068b35e6c6578706572696d656e74616cf50037",
  "source": "pragma solidity ^0.4.19;\npragma experimental ABIEncoderV2;\n\ncontract RES {\n  enum BookingStatus { REQUESTED, REJECTED, CONFIRMED, CANCELLED  }\n  struct availability {\n    uint                     _resourceId;\n    uint                     _type;\n    uint                     _minDeposit;\n    uint                     _commission;\n    uint                     _freeCancelDateTs;\n    uint                     _startDateTs;\n    uint                     _endDateTs;\n    uint\t\t\t         _quantity;\n    string                   _metaDataLink;\n  }\n\n  struct reservation {\n    address\t\t\t_clientAddress;\n    availability\t\t_offer;\n    BookingStatus    _bookingStatus;\n  }\n\n  uint availabilitiesNextId = 0;\n\n\n  mapping (uint => availability) availabilities;\n  uint[] public availabilitiesIds;\n\n  reservation[] public reservations;\n\n  function publishAvailability (uint _commission, uint _endDateTs, uint _freeCancelDateTs, string _metaDataLink, uint _minDeposit, uint _quantity, uint _resourceId, uint _startDateTs, uint _type) public {\n    availabilities[availabilitiesNextId] = availability({\n      _resourceId: _resourceId,\n\t  _type: _type,\n\t  _minDeposit: _minDeposit,\n\t  _commission: _commission,\n\t  _freeCancelDateTs: _freeCancelDateTs,\n\t  _startDateTs: _startDateTs,\n\t  _endDateTs: _endDateTs,\n\t  _quantity: _quantity,\n\t  _metaDataLink: _metaDataLink\n\t  });\n    availabilitiesIds.push(availabilitiesNextId);\n    availabilitiesNextId++;\n  }\n\n  function size() returns (uint) {\n    return availabilitiesNextId;\n  }\n\n\n  function ListAvailabilities(/* address _requester, string _criterias */) public constant returns (uint[]) {\n    return availabilitiesIds;\n  }\n\n  function ReadAvailability(uint _availabilityId) view public returns (uint, uint, uint, string, uint, uint, uint, uint, uint) {\n    availability storage a = availabilities[_availabilityId];\n    return (a._commission, a._endDateTs, a._freeCancelDateTs, a._metaDataLink, a._minDeposit, a._quantity, a._resourceId, a._startDateTs, a._type);\n  }\n\n  function ListReservations(address _requester, string _criterias) public constant returns (reservation[]) {\n    return reservations;\n  }\n\n\n  function requestReservation(address _requester, availability _availability) public constant returns (uint status) {\n    reservations.push(reservation({\n\t_clientAddress: _requester,\n\t    _offer: _availability,\n\t    _bookingStatus: BookingStatus.REQUESTED\n\t    }));\n\n\n    return 1;\n  }\n\n  function confirmReservation(address _owner, uint _reservationId) public constant returns (uint status) {\n    return 1;\n  }\n}\n\n/* function publishAvailabilities ( */\n/* \t\t\t\t  uint     _commission, */\n/* \t\t\t\t  uint     _endDateTs, */\n/* \t\t\t\t  uint     _freeCancelDateTs, */\n/* \t\t\t\t  string   _metaDataLink, */\n/* \t\t\t\t  uint     _minDeposit, */\n/* \t\t\t\t  address  _ownerAddress, */\n/* \t\t\t\t  uint     _quantity, */\n/* \t\t\t\t  uint     _resourceId, */\n/* \t\t\t\t  uint     _startDateTs, */\n/* \t\t\t\t  uint     _type */\n/* \t\t\t\t  ) public constant { */\n/*   availability memory _availability; */\n/*   _availability._commission        = _commission; */\n/*   _availability._endDateTs         = _endDateTs; */\n/*   _availability._freeCancelDateTs  = _freeCancelDateTs; */\n/*   _availability._metaDataLink      = _metaDataLink; */\n/*   _availability._minDeposit        = _minDeposit; */\n/*   _availability._ownerAddress      = _ownerAddress; */\n/*   _availability._quantity          = _quantity; */\n/*   _availability._resourceId        = _resourceId; */\n/*   _availability._startDateTs       = _startDateTs; */\n/*   _availability._type              = _type; */\n\n/*   availabilities.push(_availability); */\n/* } */\n",
  "sourcePath": "/home/boehm-s/ETNA/node-eip808-sdk/contracts/RES.sol",
  "compiler": {
    "name": "solc",
    "version": "0.4.19+commit.c4cbbb05.Emscripten.clang"
  },
  "schemaVersion": "1.0.1",
  "updatedAt": "2018-02-21T13:55:44.676Z"
}