{
  "contractName": "RES",
  "abi": [
    {
      "constant": true,
      "inputs": [
        {
          "name": "",
          "type": "uint256"
        }
      ],
      "name": "reservations",
      "outputs": [
        {
          "name": "_clientAddress",
          "type": "address"
        },
        {
          "components": [
            {
              "name": "_ownerAddress",
              "type": "address"
            },
            {
              "name": "_resourceId",
              "type": "uint256"
            },
            {
              "name": "_type",
              "type": "uint256"
            },
            {
              "name": "_minDeposit",
              "type": "uint256"
            },
            {
              "name": "_commission",
              "type": "uint256"
            },
            {
              "name": "_freeCancelDateTs",
              "type": "uint256"
            },
            {
              "name": "_startDateTs",
              "type": "uint256"
            },
            {
              "name": "_endDateTs",
              "type": "uint256"
            },
            {
              "name": "_quantity",
              "type": "uint256"
            },
            {
              "name": "_metaDataLink",
              "type": "string"
            }
          ],
          "name": "_offer",
          "type": "tuple"
        },
        {
          "name": "_bookingStatus",
          "type": "uint8"
        }
      ],
      "payable": false,
      "stateMutability": "view",
      "type": "function"
    },
    {
      "constant": true,
      "inputs": [
        {
          "name": "",
          "type": "uint256"
        }
      ],
      "name": "availabilities",
      "outputs": [
        {
          "name": "_ownerAddress",
          "type": "address"
        },
        {
          "name": "_resourceId",
          "type": "uint256"
        },
        {
          "name": "_type",
          "type": "uint256"
        },
        {
          "name": "_minDeposit",
          "type": "uint256"
        },
        {
          "name": "_commission",
          "type": "uint256"
        },
        {
          "name": "_freeCancelDateTs",
          "type": "uint256"
        },
        {
          "name": "_startDateTs",
          "type": "uint256"
        },
        {
          "name": "_endDateTs",
          "type": "uint256"
        },
        {
          "name": "_quantity",
          "type": "uint256"
        },
        {
          "name": "_metaDataLink",
          "type": "string"
        }
      ],
      "payable": false,
      "stateMutability": "view",
      "type": "function"
    },
    {
      "constant": true,
      "inputs": [
        {
          "components": [
            {
              "name": "_ownerAddress",
              "type": "address"
            },
            {
              "name": "_resourceId",
              "type": "uint256"
            },
            {
              "name": "_type",
              "type": "uint256"
            },
            {
              "name": "_minDeposit",
              "type": "uint256"
            },
            {
              "name": "_commission",
              "type": "uint256"
            },
            {
              "name": "_freeCancelDateTs",
              "type": "uint256"
            },
            {
              "name": "_startDateTs",
              "type": "uint256"
            },
            {
              "name": "_endDateTs",
              "type": "uint256"
            },
            {
              "name": "_quantity",
              "type": "uint256"
            },
            {
              "name": "_metaDataLink",
              "type": "string"
            }
          ],
          "name": "_availability",
          "type": "tuple[]"
        },
        {
          "name": "_signatureProof",
          "type": "bytes32"
        }
      ],
      "name": "publishAvailabilities",
      "outputs": [],
      "payable": false,
      "stateMutability": "view",
      "type": "function"
    },
    {
      "constant": true,
      "inputs": [
        {
          "name": "_requester",
          "type": "address"
        },
        {
          "name": "_criterias",
          "type": "string"
        }
      ],
      "name": "ListAvailabilities",
      "outputs": [
        {
          "components": [
            {
              "name": "_ownerAddress",
              "type": "address"
            },
            {
              "name": "_resourceId",
              "type": "uint256"
            },
            {
              "name": "_type",
              "type": "uint256"
            },
            {
              "name": "_minDeposit",
              "type": "uint256"
            },
            {
              "name": "_commission",
              "type": "uint256"
            },
            {
              "name": "_freeCancelDateTs",
              "type": "uint256"
            },
            {
              "name": "_startDateTs",
              "type": "uint256"
            },
            {
              "name": "_endDateTs",
              "type": "uint256"
            },
            {
              "name": "_quantity",
              "type": "uint256"
            },
            {
              "name": "_metaDataLink",
              "type": "string"
            }
          ],
          "name": "",
          "type": "tuple[]"
        }
      ],
      "payable": false,
      "stateMutability": "view",
      "type": "function"
    },
    {
      "constant": true,
      "inputs": [
        {
          "name": "_requester",
          "type": "address"
        },
        {
          "name": "_criterias",
          "type": "string"
        }
      ],
      "name": "ListReservations",
      "outputs": [
        {
          "components": [
            {
              "name": "_clientAddress",
              "type": "address"
            },
            {
              "components": [
                {
                  "name": "_ownerAddress",
                  "type": "address"
                },
                {
                  "name": "_resourceId",
                  "type": "uint256"
                },
                {
                  "name": "_type",
                  "type": "uint256"
                },
                {
                  "name": "_minDeposit",
                  "type": "uint256"
                },
                {
                  "name": "_commission",
                  "type": "uint256"
                },
                {
                  "name": "_freeCancelDateTs",
                  "type": "uint256"
                },
                {
                  "name": "_startDateTs",
                  "type": "uint256"
                },
                {
                  "name": "_endDateTs",
                  "type": "uint256"
                },
                {
                  "name": "_quantity",
                  "type": "uint256"
                },
                {
                  "name": "_metaDataLink",
                  "type": "string"
                }
              ],
              "name": "_offer",
              "type": "tuple"
            },
            {
              "name": "_bookingStatus",
              "type": "uint8"
            }
          ],
          "name": "",
          "type": "tuple[]"
        }
      ],
      "payable": false,
      "stateMutability": "view",
      "type": "function"
    },
    {
      "constant": true,
      "inputs": [
        {
          "name": "_requester",
          "type": "address"
        },
        {
          "components": [
            {
              "name": "_ownerAddress",
              "type": "address"
            },
            {
              "name": "_resourceId",
              "type": "uint256"
            },
            {
              "name": "_type",
              "type": "uint256"
            },
            {
              "name": "_minDeposit",
              "type": "uint256"
            },
            {
              "name": "_commission",
              "type": "uint256"
            },
            {
              "name": "_freeCancelDateTs",
              "type": "uint256"
            },
            {
              "name": "_startDateTs",
              "type": "uint256"
            },
            {
              "name": "_endDateTs",
              "type": "uint256"
            },
            {
              "name": "_quantity",
              "type": "uint256"
            },
            {
              "name": "_metaDataLink",
              "type": "string"
            }
          ],
          "name": "_availability",
          "type": "tuple"
        }
      ],
      "name": "requestReservation",
      "outputs": [
        {
          "name": "status",
          "type": "uint256"
        }
      ],
      "payable": false,
      "stateMutability": "view",
      "type": "function"
    },
    {
      "constant": true,
      "inputs": [
        {
          "name": "_owner",
          "type": "address"
        },
        {
          "components": [
            {
              "name": "_clientAddress",
              "type": "address"
            },
            {
              "components": [
                {
                  "name": "_ownerAddress",
                  "type": "address"
                },
                {
                  "name": "_resourceId",
                  "type": "uint256"
                },
                {
                  "name": "_type",
                  "type": "uint256"
                },
                {
                  "name": "_minDeposit",
                  "type": "uint256"
                },
                {
                  "name": "_commission",
                  "type": "uint256"
                },
                {
                  "name": "_freeCancelDateTs",
                  "type": "uint256"
                },
                {
                  "name": "_startDateTs",
                  "type": "uint256"
                },
                {
                  "name": "_endDateTs",
                  "type": "uint256"
                },
                {
                  "name": "_quantity",
                  "type": "uint256"
                },
                {
                  "name": "_metaDataLink",
                  "type": "string"
                }
              ],
              "name": "_offer",
              "type": "tuple"
            },
            {
              "name": "_bookingStatus",
              "type": "uint8"
            }
          ],
          "name": "_reservation",
          "type": "tuple"
        }
      ],
      "name": "confirmReservation",
      "outputs": [
        {
          "name": "status",
          "type": "uint256"
        }
      ],
      "payable": false,
      "stateMutability": "view",
      "type": "function"
    }
  ],
  "bytecode": "0x6060604052341561000f57600080fd5b611a9f8061001e6000396000f300606060405260043610610083576000357c0100000000000000000000000000000000000000000000000000000000900463ffffffff168063067cf832146100885780631ee5c522146100c057806361d7eb53146100e25780638c369a6c14610121578063b087841b14610157578063b1cbda171461018d578063ef179bd7146101c3575b600080fd5b341561009357600080fd5b6100a860046100a3903690611291565b6101f9565b6040516100b7939291906116ee565b60405180910390f35b34156100cb57600080fd5b6100e060046100db90369061122b565b61025e565b005b34156100ed57600080fd5b61010260046100fd903690611291565b610383565b6040516101189a9998979695949392919061172c565b60405180910390f35b341561012c57600080fd5b610141600461013c9036906110f9565b610405565b60405161014e91906117cf565b60405180910390f35b341561016257600080fd5b61017760046101729036906111c5565b6105b7565b6040516101849190611813565b60405180910390f35b341561019857600080fd5b6101ad60046101a89036906110f9565b6105c3565b6040516101ba91906117f1565b60405180910390f35b34156101ce57600080fd5b6101e360046101de90369061115f565b61080d565b6040516101f09190611813565b60405180910390f35b60018181548110151561020857fe5b90600052602060002090600c02016000915090508060000160009054906101000a900473ffffffffffffffffffffffffffffffffffffffff1690806001019080600b0160009054906101000a900460ff16905083565b6000806000805490509150600090505b8181101561037d576000805480600101828161028a91906109b4565b91600052602060002090600a0201600086848151811015156102a857fe5b90602001906020020151909190915060008201518160000160006101000a81548173ffffffffffffffffffffffffffffffffffffffff021916908373ffffffffffffffffffffffffffffffffffffffff1602179055506020820151816001015560408201518160020155606082015181600301556080820151816004015560a0820151816005015560c0820151816006015560e08201518160070155610100820151816008015561012082015181600901908051906020019061036c9291906109e6565b50505050808060010191505061026e565b50505050565b60008181548110151561039257fe5b90600052602060002090600a02016000915090508060000160009054906101000a900473ffffffffffffffffffffffffffffffffffffffff16908060010154908060020154908060030154908060040154908060050154908060060154908060070154908060080154908060090190508a565b61040d610a66565b6000805480602002602001604051908101604052809291908181526020016000905b828210156105ab57838290600052602060002090600a020161014060405190810160405290816000820160009054906101000a900473ffffffffffffffffffffffffffffffffffffffff1673ffffffffffffffffffffffffffffffffffffffff1673ffffffffffffffffffffffffffffffffffffffff1681526020016001820154815260200160028201548152602001600382015481526020016004820154815260200160058201548152602001600682015481526020016007820154815260200160088201548152602001600982018054600181600116156101000203166002900480601f0160208091040260200160405190810160405280929190818152602001828054600181600116156101000203166002900480156105935780601f1061056857610100808354040283529160200191610593565b820191906000526020600020905b81548152906001019060200180831161057657829003601f168201915b5050505050815250508152602001906001019061042f565b50505050905092915050565b60006001905092915050565b6105cb610a7a565b6001805480602002602001604051908101604052809291908181526020016000905b8282101561080157838290600052602060002090600c0201606060405190810160405290816000820160009054906101000a900473ffffffffffffffffffffffffffffffffffffffff1673ffffffffffffffffffffffffffffffffffffffff1673ffffffffffffffffffffffffffffffffffffffff1681526020016001820161014060405190810160405290816000820160009054906101000a900473ffffffffffffffffffffffffffffffffffffffff1673ffffffffffffffffffffffffffffffffffffffff1673ffffffffffffffffffffffffffffffffffffffff1681526020016001820154815260200160028201548152602001600382015481526020016004820154815260200160058201548152602001600682015481526020016007820154815260200160088201548152602001600982018054600181600116156101000203166002900480601f0160208091040260200160405190810160405280929190818152602001828054600181600116156101000203166002900480156107b85780601f1061078d576101008083540402835291602001916107b8565b820191906000526020600020905b81548152906001019060200180831161079b57829003601f168201915b5050505050815250508152602001600b820160009054906101000a900460ff1660038111156107e357fe5b60038111156107ee57fe5b81525050815260200190600101906105ed565b50505050905092915050565b6000600180548060010182816108239190610a8e565b91600052602060002090600c020160006060604051908101604052808773ffffffffffffffffffffffffffffffffffffffff1681526020018681526020016000600381111561086e57fe5b815250909190915060008201518160000160006101000a81548173ffffffffffffffffffffffffffffffffffffffff021916908373ffffffffffffffffffffffffffffffffffffffff16021790555060208201518160010160008201518160000160006101000a81548173ffffffffffffffffffffffffffffffffffffffff021916908373ffffffffffffffffffffffffffffffffffffffff1602179055506020820151816001015560408201518160020155606082015181600301556080820151816004015560a0820151816005015560c0820151816006015560e08201518160070155610100820151816008015561012082015181600901908051906020019061097b9291906109e6565b505050604082015181600b0160006101000a81548160ff021916908360038111156109a257fe5b02179055505050506001905092915050565b8154818355818115116109e157600a0281600a0283600052602060002091820191016109e09190610ac0565b5b505050565b828054600181600116156101000203166002900490600052602060002090601f016020900481019282601f10610a2757805160ff1916838001178555610a55565b82800160010185558215610a55579182015b82811115610a54578251825591602001919060010190610a39565b5b509050610a629190610b56565b5090565b602060405190810160405280600081525090565b602060405190810160405280600081525090565b815481835581811511610abb57600c0281600c028360005260206000209182019101610aba9190610b7b565b5b505050565b610b5391905b80821115610b4f57600080820160006101000a81549073ffffffffffffffffffffffffffffffffffffffff021916905560018201600090556002820160009055600382016000905560048201600090556005820160009055600682016000905560078201600090556008820160009055600982016000610b469190610c53565b50600a01610ac6565b5090565b90565b610b7891905b80821115610b74576000816000905550600101610b5c565b5090565b90565b610c5091905b80821115610c4c57600080820160006101000a81549073ffffffffffffffffffffffffffffffffffffffff021916905560018201600080820160006101000a81549073ffffffffffffffffffffffffffffffffffffffff021916905560018201600090556002820160009055600382016000905560048201600090556005820160009055600682016000905560078201600090556008820160009055600982016000610c2d9190610c53565b5050600b820160006101000a81549060ff021916905550600c01610b81565b5090565b90565b50805460018160011615610100020316600290046000825580601f10610c795750610c98565b601f016020900490600052602060002090810190610c979190610b56565b5b50565b6000610ca782356119a6565b905092915050565b600082601f83011260008114610cc457610cc9565b600080fd5b508135610cdd610cd882611864565b61182e565b9150818183526020840193506020810190508360005b83811015610d235781358601610d098882610e23565b845260208401935060208301925050600181019050610cf3565b5050505092915050565b6000610d3982356119c6565b905092915050565b6000610d4d82356119d0565b905092915050565b600082601f83011260008114610d6a57610d6f565b600080fd5b508135610d83610d7e82611895565b61182e565b91508082526020830160208301858383011160018114610da257610da7565b600080fd5b50610db3838284611a05565b50505092915050565b600082601f83011260008114610dd157610dd6565b600080fd5b508135610dea610de5826118ca565b61182e565b91508082526020830160208301858383011160018114610e0957610e0e565b600080fd5b50610e1a838284611a05565b50505092915050565b60006101408284031260018114610e3957610e3e565b600080fd5b50610e4a61014061182e565b90506000610e5a84828501610c9b565b6000830152506020610e6e848285016110e5565b6020830152506040610e82848285016110e5565b6040830152506060610e96848285016110e5565b6060830152506080610eaa848285016110e5565b60808301525060a0610ebe848285016110e5565b60a08301525060c0610ed2848285016110e5565b60c08301525060e0610ee6848285016110e5565b60e083015250610100610efb848285016110e5565b6101008301525061012082013567ffffffffffffffff811160018114610f2057610f25565b600080fd5b50610f3284828501610d55565b6101208301525092915050565b60006101408284031260018114610f5557610f5a565b600080fd5b50610f6661014061182e565b90506000610f7684828501610c9b565b6000830152506020610f8a848285016110e5565b6020830152506040610f9e848285016110e5565b6040830152506060610fb2848285016110e5565b6060830152506080610fc6848285016110e5565b60808301525060a0610fda848285016110e5565b60a08301525060c0610fee848285016110e5565b60c08301525060e0611002848285016110e5565b60e083015250610100611017848285016110e5565b6101008301525061012082013567ffffffffffffffff81116001811461103c57611041565b600080fd5b5061104e84828501610d55565b6101208301525092915050565b60006060828403126001811461107057611075565b600080fd5b50611080606061182e565b9050600061109084828501610c9b565b600083015250602082013567ffffffffffffffff8111600181146110b3576110b8565b600080fd5b506110c584828501610e23565b60208301525060406110d984828501610d41565b60408301525092915050565b60006110f182356119e9565b905092915050565b6000806040838503126001811461110f57611114565b600080fd5b50600061112385828601610c9b565b925050602083013567ffffffffffffffff81116001811461114357611148565b600080fd5b5061115585828601610dbc565b9150509250929050565b600080604083850312600181146111755761117a565b600080fd5b50600061118985828601610c9b565b925050602083013567ffffffffffffffff8111600181146111a9576111ae565b600080fd5b506111bb85828601610f3f565b9150509250929050565b600080604083850312600181146111db576111e0565b600080fd5b5060006111ef85828601610c9b565b925050602083013567ffffffffffffffff81116001811461120f57611214565b600080fd5b506112218582860161105b565b9150509250929050565b6000806040838503126001811461124157611246565b600080fd5b50600083013567ffffffffffffffff81116001811461126457611269565b600080fd5b5061127685828601610caf565b925050602061128785828601610d2d565b9150509250929050565b6000602082840312600181146112a6576112ab565b600080fd5b5060006112ba848285016110e5565b91505092915050565b6112cc81611966565b82525050565b60006112dd8261192b565b808452602084019350836020820285016112f6856118ff565b60005b8481101561132f578383038852611311838351611479565b925061131c8261194c565b91506020880197506001810190506112f9565b508196508694505050505092915050565b600061134b82611936565b808452602084019350836020820285016113648561190c565b60005b8481101561139d57838303885261137f83835161168f565b925061138a82611959565b9150602088019750600181019050611367565b508196508694505050505092915050565b6113b7816119f3565b82525050565b60006113c882611941565b8084526113dc816020860160208601611a14565b6113e581611a47565b602085010191505092915050565b600081546001811660008114611410576001811461143057611471565b607f600283041680865260ff198316602087015260408601935050611471565b6002820480865260208601955061144685611919565b60005b8281101561146857815481890152600182019150602081019050611449565b80880195505050505b505092915050565b60006101408301600083015161149260008601826112c3565b5060208301516114a560208601826116df565b5060408301516114b860408601826116df565b5060608301516114cb60608601826116df565b5060808301516114de60808601826116df565b5060a08301516114f160a08601826116df565b5060c083015161150460c08601826116df565b5060e083015161151760e08601826116df565b5061010083015161152c6101008601826116df565b5061012083015184820361012086015261154682826113bd565b9150508091505092915050565b60006101408301600080840154905061156b81611a58565b61157860008701826112c3565b506001840154905061158981611a58565b61159660208701826116df565b50600284015490506115a781611a58565b6115b460408701826116df565b50600384015490506115c581611a58565b6115d260608701826116df565b50600484015490506115e381611a58565b6115f060808701826116df565b506005840154905061160181611a58565b61160e60a08701826116df565b506006840154905061161f81611a58565b61162c60c08701826116df565b506007840154905061163d81611a58565b61164a60e08701826116df565b506008840154905061165b81611a58565b6116696101008701826116df565b506009840185830361012087015261168183826113f3565b925050819250505092915050565b60006060830160008301516116a760008601826112c3565b50602083015184820360208601526116bf8282611479565b91505060408301516116d460408601826113ae565b508091505092915050565b6116e88161199c565b82525050565b600060608201905061170360008301866112c3565b81810360208301526117158185611553565b905061172460408301846113ae565b949350505050565b600061014082019050611742600083018d6112c3565b61174f602083018c6116df565b61175c604083018b6116df565b611769606083018a6116df565b61177660808301896116df565b61178360a08301886116df565b61179060c08301876116df565b61179d60e08301866116df565b6117ab6101008301856116df565b8181036101208301526117be81846113f3565b90509b9a5050505050505050505050565b600060208201905081810360008301526117e981846112d2565b905092915050565b6000602082019050818103600083015261180b8184611340565b905092915050565b600060208201905061182860008301846116df565b92915050565b6000604051905081810181811067ffffffffffffffff8211176001811461185457611859565b600080fd5b508060405250919050565b600067ffffffffffffffff82116001811461187e57611883565b600080fd5b50602082029050602081019050919050565b600067ffffffffffffffff8211600181146118af576118b4565b600080fd5b50601f19601f8301169050602081019050919050565b600067ffffffffffffffff8211600181146118e4576118e9565b600080fd5b50601f19601f8301169050602081019050919050565b6000602082019050919050565b6000602082019050919050565b60008160005260206000209050919050565b600081519050919050565b600081519050919050565b600081519050919050565b6000602082019050919050565b6000602082019050919050565b600073ffffffffffffffffffffffffffffffffffffffff82169050919050565b600060048210151561199457fe5b819050919050565b6000819050919050565b600073ffffffffffffffffffffffffffffffffffffffff82169050919050565b6000819050919050565b60006004821015156119e157600080fd5b819050919050565b6000819050919050565b60006119fe82611986565b9050919050565b82818337600083830152505050565b60005b83811015611a32578082015181840152602081019050611a17565b83811115611a41576000848401525b50505050565b6000601f19601f8301169050919050565b60006001820490509190505600a265627a7a723058202724ef827d7996fde26710c8699518e3beccc15133d6dfd87c767255518e5ffd6c6578706572696d656e74616cf50037",
  "source": "\npragma solidity ^0.4.19;\npragma experimental ABIEncoderV2;\n\ncontract RES {\n    enum BookingStatus { REQUESTED, REJECTED, CONFIRMED, CANCELLED  }\n    struct availability {\n    \taddress                  _ownerAddress;\n    \tuint                     _resourceId;\n        uint                     _type;\n    \tuint                     _minDeposit;\n    \tuint                     _commission;\n    \tuint                     _freeCancelDateTs;\n    \tuint                     _startDateTs;\n    \tuint                     _endDateTs;\n        uint\t\t\t         _quantity;\n    \tstring                   _metaDataLink;\n    }\n\n    struct reservation {\n        address\t\t\t_clientAddress;\n        availability\t\t_offer;\n\t    BookingStatus    _bookingStatus;\n    }\n\n\n    availability[] public availabilities;\n    reservation[] public reservations;\n\n    function publishAvailabilities (availability[] _availability, bytes32 _signatureProof) public constant {\n            uint arrayLength = availabilities.length;\n\n            for (uint i=0; i < arrayLength; i++) {\n                availabilities.push(_availability[i]);\n            }\n    }\n\n    function ListAvailabilities(address _requester, string _criterias) public constant returns (availability[]) {\n        return availabilities;\n    }\n\n    function ListReservations(address _requester, string _criterias) public constant returns (reservation[]) {\n        return reservations;\n    }\n\n    function requestReservation(address _requester, availability _availability) public constant returns (uint status) {\n        reservations.push(reservation({\n                _clientAddress: _requester,\n                _offer: _availability,\n                _bookingStatus: BookingStatus.REQUESTED\n        }));\n\n\n        return 1;\n    }\n\n    function confirmReservation(address _owner, reservation _reservation) public constant returns (uint status) {\n        return 1;\n    }\n}\n",
  "sourcePath": "/home/erwan/Desktop/ETNA/node-eip808-sdk/contracts/RES.sol",
  "compiler": {
    "name": "solc",
    "version": "0.4.19+commit.c4cbbb05.Emscripten.clang"
  },
  "schemaVersion": "1.0.1",
  "updatedAt": "2018-02-21T08:23:58.007Z"
}